:100000006EC00000A4C20000EEC1000085C0000068
:1000100083C0000081C000007FC000007DC00000E0
:100020007BC0000079C0000077C0000075C00000F0
:1000300073C0000071C000006FC000006DC0000000
:100040006BC0000051C5000067C0000065C0000023
:1000500063C0000061C000005FC000005DC0000020
:100060005BC0000059C0000057C0000055C0000030
:1000700053C0000051C000004FC000004DC0000040
:100080004BC0000049C0000047C0000045C0000050
:1000900019C1000041C000003FC000003DC0000089
:1000A0003BC0000039C0000037C0000035C0000070
:1000B00033C0000031C000002FC000002DC0000080
:1000C0002BC0000029C0000027C000005E036703AA
:1000D0007003790382038B0394039D03A603112409
:1000E0001FBECFEFD1E2DEBFCDBF12E0A0E0B2E095
:1000F000EAEBFBE000E00BBF02C007900D92A43ECC
:10010000B107D9F723E0A4EEB2E001C01D92A131FE
:10011000B207E1F7C6D34FC573CF88B18F7388B9E3
:10012000A198A09A0F98479A0799FECF4798A09850
:10013000A19A0F9A0895F1DF4698479A8091050396
:1001400082B947980895E9DF4698479A82B180932B
:1001500005034798089581E080930503ECCF089547
:1001600088E380930503E7DF86E080930503E3DF00
:1001700080E180930503DFCF0895806880930503B5
:10018000DACF0895CF93C82FC8DF88B1806C88B9C3
:10019000C2B94798CF9108951F93CF93DF93EC0195
:1001A00010E006C0FE01E80FF91F8081EBDF1F5F42
:1001B000812F90E0FE0101900020E9F73197EC1BC0
:1001C000FD0B8E179F0770F3DF91CF911F9108955C
:1001D0008FE080930503AFCF0895B5DF80910503CD
:1001E0008D7F80930503A7CF08958CE0809305034E
:1001F000A2CF089590910C03E92FF0E0E151FD4F5B
:1002000080839F5F90930C0308951F93CF93DF9398
:10021000CFEED2E010E4812FB0DF8991B3DF1F5F12
:100220001035C9F7DF91CF911F91089594DF80E0D9
:10023000A4DF84E192E0B0DFE8CF089580910C0361
:10024000803111F0F3CF08958091EF02823021F0D8
:10025000EDDF8DE085B908958091FC028D3011F0BD
:10026000E5CF08958091FD028A3011F0DFCF089527
:100270008091FE02833011F0D9CF08956CDF80E0C9
:100280007CDF8AE192E088DF80E477DF8DE292E034
:1002900083DF81E090E09093100380930F035BDF96
:1002A00082E08DBB089582E08093C80080E980934E
:1002B000C90087E08093CA001092CD008CE0809343
:1002C000CC0008951F920F920FB60F9211240BB617
:1002D0000F922F933F934F935F936F937F938F93DF
:1002E0009F93AF93BF93EF93FF938091CE0082DFF4
:1002F00080910C03803118F0A1DF10920C03FF9164
:10030000EF91BF91AF919F918F917F916F915F918D
:100310004F913F912F910F900BBE0F900FBE0F90FA
:100320001F9018958FEF8DB91EB881B988EC87B9E9
:1003300018B88FE383BB88EF84B987E085B988E07C
:100340008AB9109209031092080310920B031092BD
:100350000A037894089582E08093690010926A00FD
:10036000E89A8FEF8CBB089588E080936900109223
:100370006A001DBA8FEF8CBB0895DF92EF92FF9257
:100380000F931F93CF93DF93D0900D03E0900E0354
:10039000E0EFF2E0CAE0D2E0A0E0B2E04AEF52E0E3
:1003A00011E070E0F12C00E0619139912D91812FE5
:1003B000972F631711F08F2D902F30E08223932316
:1003C000892B11F0D12EE72EE417F50769F7D092AB
:1003D0000D03E0920E03DF91CF911F910F91FF90DB
:1003E000EF90DF9008951F920F920FB60F92112495
:1003F0000BB60F922F933F934F935F936F937F931F
:100400008F939F93AF93BF93EF93FF931092E70265
:100410001092E60281E090E09093E5028093E4027E
:100420009093070380930603A8DF10920C03FF91BB
:10043000EF91BF91AF919F918F917F916F915F915C
:100440004F913F912F910F900BBE0F900FBE0F90C9
:100450001F90189582E88093900081E0809391002E
:100460001092920086E48093970080E58093960036
:1004700010929500109294008CED95E09093990065
:1004800080939800109271008FE288BB08951092BB
:10049000800088E0809381001092820083E0809346
:1004A000890080ED8093880010928500109284006E
:1004B00082E080936F0008958CED95E09093990011
:1004C000809398002FE78AE196E021508040904089
:1004D000E1F700C000000895E8E9F0E08081918133
:1004E0008C5D9540918380832FE78AE196E02150CF
:1004F00080409040E1F700C00000089582E390E062
:1005000028E01BB8EDEEF2E03197F1F700C00000F3
:100510002BB9EDEEF2E03197F1F700C00000019742
:10052000009779F782E390E028E01BB8E9EFF0E06C
:100530003197F1F700C000002BB9E9EFF0E03197F7
:10054000F1F700C000000197009779F708951F9216
:100550000F920FB60F9211240BB60F922F933F9369
:100560004F935F936F937F938F939F93AF93BF93BB
:10057000EF93FF93F0DD10920C03C0DF2FEB87E2C7
:1005800099E0215080409040E1F700C00000FF91C9
:10059000EF91BF91AF919F918F917F916F915F91FB
:1005A0004F913F912F910F900BBE0F900FBE0F9068
:1005B0001F90189580E590E028E01BB8E3EFF1E08C
:1005C0003197F1F700C000002BB9E3EFF1E031976C
:1005D000F1F700C000000197009779F7089593B1F3
:1005E000986F9095923031F0943039F0913021F03D
:1005F0008FEF08958F5F08958E5F08958FE385B91B
:1006000081E0EDDF8F3F81F48FE585B984E0E7DF9E
:100610008F3F51F48FE685B987E0E1DF8F3F21F40A
:1006200087E785B98AE0DBCF08959091EC0280914D
:10063000FF02981729F105C02FEF30E05FEF40E08F
:1006400011C010920403109203032FEF30E05FEF0C
:1006500040E013C001970097E9F7215031092115B7
:10066000310509F1852F942FF5CF01970097E9F710
:100670002150310921153105B1F0852F942FF5CF87
:1006800081E090E090930403809303039091ED0246
:10069000809100039813D5CF9091EE0280910103D1
:1006A000981751F2CECF089590E0FC013197E930D0
:1006B000F10508F053C0EA59FF4F77C2E091EA0212
:1006C000F091EB02E150FD4F81E0808347C0E09163
:1006D000EA02F091EB02E150FD4F82E080833EC0E0
:1006E000E091EA02F091EB02E150FD4F83E080835C
:1006F00035C0E091EA02F091EB02E150FD4F84E059
:1007000080832CC0E091EA02F091EB02E150FD4FB2
:1007100085E0808323C0E091EA02F091EB02E15092
:10072000FD4F86E080831AC0E091EA02F091EB026F
:10073000E150FD4F87E0808311C0E091EA02F09123
:10074000EB02E150FD4F88E0808308C0E091EA02AF
:10075000F091EB02E150FD4F89E080838091EA0245
:100760009091EB02039709F03FC09091FF028091B6
:10077000EC02981731F102C0EECC08951092E90214
:100780001092E802E8DC84E492E006DD13DF2FE358
:100790008DE093E0215080409040E1F700C00000E0
:1007A00009DF2FE38DE093E0215080409040E1F796
:1007B00000C00000FFDE1092EB021092EA0271C04E
:1007C000089581E090E09093E9028093E80290918F
:1007D00000038091ED029813D1CF90910103809195
:1007E000EE02981749F2CACF0895CF93C82F8A30E6
:1007F00049F4B1DC8EE492E0CFDC1092EB0210926F
:10080000EA024DC0882309F445C02091EA023091E4
:10081000EB022430310509F43DC02115310529F4DE
:100820008AE0ABDC8AE2AEDC18C02130310529F465
:100830008BE0A3DC8AE2A6DC10C02230310529F46B
:100840008CE09BDC8AE29EDC08C02330310529F471
:100850008DE093DC8AE296DCE8DE8C2F90E024DFEA
:1008600026E930E05FEF40E008C001970097E9F724
:10087000215031092115310519F0852F942FF5CF1D
:100880008091EA029091EB0201969093EB028093A3
:10089000EA0205C060DC64DC9BDC9FDCA6DCCF9157
:1008A00008951DBA10920C031092070310920603CC
:1008B0001092100310920F0310920E0310920D036A
:1008C00031DDC8DD48DD50DDE2DDEDDC44DC48DC57
:1008D0007FDC83DC8ADC2FE78AE196E021508040D0
:1008E0009040E1F700C000001092E5021092E4028F
:1008F00081E08093EC0282E08093ED0283E08093BC
:10090000EE0284E08093EF021092FF021092000347
:10091000109201031092020323C080910F03909163
:100920001003009759F480E028DC89E592E034DC7C
:1009300080E423DC83E692E02FDC0CC0019781F495
:1009400080E01BDC8AE192E027DC80E416DC8DE2AB
:1009500092E022DC8091060390910703019731F029
:100960008091060390910703892BB9F28091F902D7
:1009700091E020910A02821301C090E0992369F06E
:1009800091E020911402821301C090E0992329F094
:1009900010920E0310920D0361C080910D0390918F
:1009A0000E03019709F05AC08DE080938100D3DBDC
:1009B00080E0E3DB82E792E0EFDB06C01FDE80939E
:1009C00002038F3F09F011DF8091EA029091EB0260
:1009D0000497A1F71092EB021092EA028091E802CC
:1009E0009091E902019709F07AC01092E502109205
:1009F000E4028091F90290911402891304C08EE7F9
:100A000092E0CADB4FC090910A02891304C08CE8BF
:100A100092E0C2DB47C08DE992E0BEDBCBDD2FE385
:100A20008DE093E0215080409040E1F700C000004D
:100A3000C1DD2FE38DE093E0215080409040E1F74D
:100A400000C00000B7DD2FE38DE093E0215080402F
:100A50009040E1F700C0000024CF08957CDB8DE9D1
:100A600092E09ADBA7DD2FE38DE093E021508040F8
:100A70009040E1F700C000009DDD2FE38DE093E0A2
:100A8000215080409040E1F700C0000093DD2FE34B
:100A90008DE093E0215080409040E1F700C00000DD
:100AA00000CF08958091E8029091E9020197B9F48E
:100AB00052DB8AEA92E070DB21DDFEDC2FE78AE17F
:100AC00096E0215080409040E1F700C0000004DD36
:100AD0001092E9021092E8021DBAE3CE089587EB66
:100AE00092E05ADBDECE08951F920F920FB60F925E
:100AF00011240BB60F922F933F934F935F936F93F5
:100B00007F938F939F93AF93BF93EF93FF938091C6
:100B1000E6029091E70201969093E7028093E60245
:100B200021E0059709F020E08091E4029091E50230
:100B30002223E9F031E08130910509F030E03323E0
:100B4000B1F088E08093810006DB85ED92E024DB44
:100B50001092EB021092EA022FE78AE196E0215010
:100B600080409040E1F700C000009BDE0BC02223D4
:100B700049F021E0892B09F020E0222319F088E0D8
:100B800080938100FF91EF91BF91AF919F918F91E1
:100B90007F916F915F914F913F912F910F900BBE7D
:100BA0000F900FBE0F901F901895EE0FFF1F05902E
:0A0BB000F491E02D0994F894FFCFB2
:100BBA0032393030393432374332323930303933DE
:100BCA00444238454552524F5200434845434B49E7
:100BDA004E472043415244202E2E2E2E005052457D
:100BEA0053532031200074696D65722073746172E9
:100BFA007465640057524F4E472050494E00456E67
:100C0A007465722050696E3A005343414E20434145
:100C1A005244004177616974696E6720496E707544
:100C2A007400454E5445522050494E3A20005765AB
:100C3A006C636F6D65204C657769730057656C63EB
:100C4A006F6D65205072696E6365737300494E5605
:100C5A00414C4944204341524400444F4F52204F93
:100C6A0050454E494E470057726F6E672041757462
:100C7A0068656E7469636174696F6E2073757070EC
:100C8A006C696564005363616E6E657220526573A8
:040C9A00657400007D
:00000001FF
